:020000040800F2
:10000000180400209D010008A5010008A7010008B0
:10001000A9010008AB010008AD01000800000000C4
:10002000000000000000000000000000AF01000818
:10003000B101000800000000B3010008B50100088C
:10004000B7010008B7010008B7010008B7010008B0
:10005000B7010008B7010008B7010008B7010008A0
:10006000B7010008B7010008B7010008B701000890
:10007000B7010008B7010008B7010008B701000880
:10008000B7010008B7010008B7010008B701000870
:10009000B7010008B7010008B7010008B701000860
:1000A000B7010008B7010008B7010008B701000850
:1000B000B7010008B7010008B7010008B701000840
:1000C000B7010008B7010008B7010008B701000830
:1000D000B7010008B7010008B7010008B701000820
:1000E000B7010008B7010008B7010008B701000810
:1000F000B7010008B7010008B7010008B701000800
:10010000B7010008B7010008B7010008B7010008EF
:10011000B7010008B7010008B7010008B7010008DF
:10012000B7010008B7010008B7010008B7010008CF
:10013000B7010008B7010008B7010008B7010008BF
:10014000B7010008B7010008B7010008B7010008AF
:10015000B7010008B7010008B7010008B70100089F
:10016000B7010008B7010008B7010008B70100088F
:10017000B7010008B7010008B7010008B70100087F
:10018000B7010008B7010008DFF80CD000F018F83C
:1001900000480047E507000818040020064880478B
:1001A00006480047FEE7FEE7FEE7FEE7FEE7FEE75C
:1001B000FEE7FEE7FEE7FEE7FD0200088901000812
:1001C000064C074D06E0E06840F0010394E80700A4
:1001D00098471034AC42F6D3FFF7DAFFA4080008C2
:1001E000C4080008F0B50A4600210023002400BF1F
:1001F0003DE0012505FA01F3156805EA03049C4278
:1002000034D105684F000326BE40B543056015791B
:100210004E00B5400668354305601579012D02D0C2
:100220001579022D16D185684F000326BE40B543CF
:10023000856055794E00B5408668354385604568D0
:1002400001268E40B5434560456896798E40B6B22A
:1002500035434560C5684F000326BE40B543C560C1
:10026000D5794E00B540C6683543C560491C102994
:10027000BFD3F0BDF0B5002300244D07ED0E02FA08
:1002800005F3CE1000F1200555F826504E07F70E65
:100290000F26BE40B543CF1000F1200646F8275088
:1002A000CE1000F1200555F8265045EA0304CE1083
:1002B00000F1200545F82640F0BD000029B1064AAE
:1002C00012680243044B1A6004E0034A1268824336
:1002D000014B1A60704700003038024029B1064ACD
:1002E00012680243044B1A6004E0034A1268824316
:1002F000014B1A60704700004438024010B51548A1
:10030000006840F47000134908601348006840F02A
:1003100001001149086000200F49083108600E48AB
:1003200000680E4908400C4908600D48091D086026
:10033000081F006820F48020091F0860002006497B
:100340000C31086000F0A4F94FF0006001498039D9
:10035000086010BD88ED00E000380240FFFFF6FEA7
:100360001030002421B1028842F00102028004E032
:1003700002884FF6FE731A400280704770B5002461
:1003800000220023058C4FF6FE7635400584028C52
:100390008388048B4FF68F752C40B51E2C400D883A
:1003A0002C43751E2A408D892A434D882A43104DBF
:1003B000A84202D00F4DA84213D14FF6F7752A403C
:1003C000CD892A434FF6FB752A408D882A434FF684
:1003D000FF652B404FF6FF552B400D8A2B434D8A6E
:1003E0002B43838004838D684563028470BD0000C5
:1003F00000000140000401400A460021018B4FF635
:10040000F7731940114301837047000000220288EE
:10041000184B98420ED0184B98420BD0B0F1804F39
:1004200008D0164B984205D0154B984202D0154B78
:10043000984204D14FF68F731A404B881A43124BDF
:10044000984207D0114B984204D04FF6FF431A4010
:100450000B891A4302804B68C3620B880385054BE6
:10046000984202D0044B984201D18B7A0386012333
:1004700083827047000001400004014000040040F6
:1004800000080040000C0040001000400014004034
:1004900001460868704701468868704730B585B0E6
:1004A00005460C4601210220FFF708FF0322082120
:1004B0001648FFF7DFFE4FF48070039000208DF8A0
:1004C00012008DF8130002208DF8100003208DF823
:1004D000110003A90D48FFF785FE01214804FFF72D
:1004E000FDFE0020ADF80000ADF802000194ADF86B
:1004F00008008DF80A0069460548FFF787FF0121CB
:100500000348FFF72FFF05B030BD00000004024094
:100510000044014030B585B005460C46012102205B
:10052000FFF7CCFE032209211648FFF7A3FE4FF484
:100530000070039000208DF812008DF81300022047
:100540008DF8100003208DF8110003A90D48FFF766
:1005500049FE01218804FFF7C1FE0020ADF800002C
:10056000ADF802000194ADF808008DF80A00694664
:100570000548FFF74BFF01210348FFF7F3FE05B0E5
:1005800030BD00000004024000480140034A1268E8
:10059000B2FBF1F2521E026070470000040000201E
:1005A000034A1268B2FBF1F2521E826070470000EB
:1005B0000400002010B586B004467020ADF8040099
:1005C0000120ADF806000220ADF8100000200390D5
:1005D00001A90448FFF7D2FE08210248FFF70CFFEB
:1005E00006B010BD0044014010B586B0044670202E
:1005F000ADF804000120ADF806000220ADF81000AF
:100600000020039001A90448FFF7B8FE0821024822
:10061000FFF7F2FE06B010BD0048014000B50346EA
:100620000A46002A0FDB642A00DD64221846FFF721
:100630002FFF401C50436421B0FBF1F0401E586076
:1006400001495868086000BD3444014000B50346C4
:100650000A46002A10DB642A00DD64221846FFF7F0
:100660001AFF401C50436421B0FBF1F0401ED860DB
:100670000649D868086008E0101E01DB014600E06A
:1006800041424AB2642A00DD642200BD3448014080
:100690000CB50020019000903448006840F4803090
:1006A0003249086000BF3148006800F40030009013
:1006B0000198401C0190009818B90198B0F5A06FFE
:1006C000F1D12A48006800F4003010B101200090F8
:1006D00001E0002000900098012846D123484030D6
:1006E000006840F08050214940310860204800688F
:1006F00040F440401E4908601C48083000681B490F
:10070000083108600846006840F400400860084668
:10071000006840F4A05008601648091F0860081FD0
:10072000006840F08070091F086000BF0F48006833
:1007300000F000700028F9D040F205700E49086002
:100740000A480830006820F00300084908310860B2
:100750000846006840F00200086000BF0348083007
:10076000006800F00C000828F8D10CBD00380240E9
:100770000070004008544007003C0240014A1160EC
:1007800070470000000000202DE9F04107460C46AC
:100790001546261E01DB304600E0704241B2084893
:1007A0000068FFF73BFF2E1E01DB304600E0704281
:1007B00041B203480068FFF749FFBDE8F08100003F
:1007C0000000002002E008C8121F08C1002AFAD168
:1007D00070477047002001E001C1121F002AFBD1C1
:1007E0007047000070B586B0FFF788FD02A800BF13
:1007F00001A800BF02AC4FF4807029490880802016
:1008000008808000891E0880891C08808020891E3D
:10081000088080000880891C0880891E0880891C47
:100820000880802008808000891E0880891C08803C
:10083000802008808000891E0880891C0880402054
:10084000891E0880891C088001AD02A92846FFF78F
:1008500095FF42F210712046FFF798FE02A8FFF7BD
:1008600017FE064631462046FFF718FE2046FFF7E2
:10087000A1FE46F2A8112046FFF792FE02A8FFF75C
:100880000AFE064631462046FFF744FE2046FFF7A3
:10089000ABFE04E0462232212846FFF775FFF9E758
:1008A0001A080240C40800080000002018000000D8
:1008B000C4070008DC08000818000020000400003D
:1008C000D407000800000000007A030A00000000BE
:0C08D000000000000102030406070809F4
:040000050800018965
:00000001FF
