:020000040800F2
:10000000180400209D010008A5010008A7010008B0
:10001000A9010008AB010008AD01000800000000C4
:10002000000000000000000000000000AF01000818
:10003000B101000800000000B3010008B50100088C
:10004000B7010008B7010008B7010008B7010008B0
:10005000B7010008B7010008B7010008B7010008A0
:10006000B7010008B7010008B7010008B701000890
:10007000B7010008B7010008B7010008B701000880
:10008000B7010008B7010008B7010008B701000870
:10009000B7010008B7010008B7010008B701000860
:1000A000B7010008B7010008B7010008B701000850
:1000B000B7010008B7010008B7010008B701000840
:1000C000B7010008B7010008B7010008B701000830
:1000D000B7010008B7010008B7010008B701000820
:1000E000B7010008B7010008B7010008B701000810
:1000F000B7010008B7010008B7010008B701000800
:10010000B7010008B7010008B7010008B7010008EF
:10011000B7010008B7010008B7010008B7010008DF
:10012000B7010008B7010008B7010008B7010008CF
:10013000B7010008B7010008B7010008B7010008BF
:10014000B7010008B7010008B7010008B7010008AF
:10015000B7010008B7010008B7010008B70100089F
:10016000B7010008B7010008B7010008B70100088F
:10017000B7010008B7010008B7010008B70100087F
:10018000B7010008B7010008DFF80CD000F018F83C
:1001900000480047530A000818040020064880471A
:1001A00006480047FEE7FEE7FEE7FEE7FEE7FEE75C
:1001B000FEE7FEE7FEE7FEE7FD0200088901000812
:1001C000064C074D06E0E06840F0010394E80700A4
:1001D00098471034AC42F6D3FFF7DAFFC40A0008A0
:1001E000E40A0008F0B50A4600210023002400BFFD
:1001F0003DE0012505FA01F3156805EA03049C4278
:1002000034D105684F000326BE40B543056015791B
:100210004E00B5400668354305601579012D02D0C2
:100220001579022D16D185684F000326BE40B543CF
:10023000856055794E00B5408668354385604568D0
:1002400001268E40B5434560456896798E40B6B22A
:1002500035434560C5684F000326BE40B543C560C1
:10026000D5794E00B540C6683543C560491C102994
:10027000BFD3F0BDF0B5002300244D07ED0E02FA08
:1002800005F3CE1000F1200555F826504E07F70E65
:100290000F26BE40B543CF1000F1200646F8275088
:1002A000CE1000F1200555F8265045EA0304CE1083
:1002B00000F1200545F82640F0BD000029B1064AAE
:1002C00012680243044B1A6004E0034A1268824336
:1002D000014B1A60704700003038024029B1064ACD
:1002E00012680243044B1A6004E0034A1268824316
:1002F000014B1A60704700004438024010B51548A1
:10030000006840F47000134908601348006840F02A
:1003100001001149086000200F49083108600E48AB
:1003200000680E4908400C4908600D48091D086026
:10033000081F006820F48020091F0860002006497B
:100340000C31086000F0B6F94FF0006001498039C7
:10035000086010BD88ED00E000380240FFFFF6FEA7
:100360001030002421B1028842F00102028004E032
:1003700002884FF6FE731A400280704770B5002461
:1003800000220023058C4FF6FE7635400584028C52
:100390008388048B4FF68F752C40B51E2C400D883A
:1003A0002C43751E2A408D892A434D882A43104DBF
:1003B000A84202D00F4DA84213D14FF6F7752A403C
:1003C000CD892A434FF6FB752A408D882A434FF684
:1003D000FF652B404FF6FF552B400D8A2B434D8A6E
:1003E0002B43838004838D684563028470BD0000C5
:1003F00000000140000401400A460021018B4FF635
:10040000F7731940114301837047000000220288EE
:10041000184B98420ED0184B98420BD0B0F1804F39
:1004200008D0164B984205D0154B984202D0154B78
:10043000984204D14FF68F731A404B881A43124BDF
:10044000984207D0114B984204D04FF6FF431A4010
:100450000B891A4302804B68C3620B880385054BE6
:10046000984202D0044B984201D18B7A0386012333
:1004700083827047000001400004014000040040F6
:1004800000080040000C0040001000400014004034
:100490001CB501210420FFF711FF4FF4707000908C
:1004A00001208DF8040000208DF8060003208DF84F
:1004B000050000208DF8070069460248FFF792FE0C
:1004C0001CBD000000080240014608687047014654
:1004D0008868704730B585B005460C46012102207A
:1004E000FFF7ECFE032208211648FFF7C3FE4FF486
:1004F0008070039000208DF812008DF81300022008
:100500008DF8100003208DF8110003A90D48FFF7A6
:1005100069FE01214804FFF7E1FE0020ADF800006C
:10052000ADF802000194ADF808008DF80A006946A4
:100530000548FFF76BFF01210348FFF713FF05B0E4
:1005400030BD0000000402400044014030B585B0D9
:1005500005460C4601210220FFF7B0FE03220921C7
:100560001648FFF787FE4FF40070039000208DF8C7
:1005700012008DF8130002208DF8100003208DF872
:10058000110003A90D48FFF72DFE01218804FFF794
:10059000A5FE0020ADF80000ADF802000194ADF812
:1005A00008008DF80A0069460548FFF72FFF012172
:1005B0000348FFF7D7FE05B030BD0000000402403D
:1005C00000480140034A1268B2FBF1F2521E026079
:1005D0007047000004000020034A1268B2FBF1F2E9
:1005E000521E8260704700000400002010B586B0E3
:1005F00004467020ADF804000120ADF8060002208A
:10060000ADF810000020039001A90448FFF7B6FEE2
:1006100008210248FFF7F0FE06B010BD004401407B
:1006200010B586B004467020ADF804000120ADF886
:1006300006000220ADF810000020039001A9044834
:10064000FFF79CFE08210248FFF7D6FE06B010BD5A
:100650000048014000B503460A46002A0FDB642A21
:1006600000DD64221846FFF72FFF401C5043642131
:10067000B0FBF1F0401E586001495868086000BDA9
:100680003444014000B503460A46002A0FDB642AC1
:1006900000DD64221846FFF71AFF401C5043642116
:1006A000B0FBF1F0401ED8600149D868086000BD79
:1006B000344801400CB50020019000903448006897
:1006C00040F480303249086000BF3148006800F4CF
:1006D000003000900198401C0190009818B90198D2
:1006E000B0F5A06FF1D12A48006800F4003010B1D5
:1006F0000120009001E0002000900098012846D1E0
:1007000023484030006840F0805021494031086063
:100710002048006840F440401E4908601C480830EA
:1007200000681B49083108600846006840F4004032
:1007300008600846006840F4A05008601648091F89
:100740000860081F006840F08070091F086000BF43
:100750000F48006800F000700028F9D040F20570E2
:100760000E4908600A480830006820F00300084974
:10077000083108600846006840F00200086000BFC9
:1007800003480830006800F00C000828F8D10CBDC0
:10079000003802400070004008544007003C02400E
:1007A00080211F4A11808900921E1180921C1180A5
:1007B000802111808900921E1180921C118080215D
:1007C00011808900921E1180921C1180802111805D
:1007D0008900921E1180921C11808021921E11802E
:1007E00089001180921C1180802111808900921E45
:1007F0001180921C11808021921E1180890011802D
:10080000921C1180802111808900921E1180921CFF
:1008100011804021921E1180921C118070470000AF
:100820001A08024080211F4A11808900921E1180FF
:10083000921C1180802111808900921E1180921CCF
:100840001180802111808900921E1180921C1180DC
:100850008021921E118089001180921C11808021BC
:1008600011808900921E1180921C11808021921E9D
:10087000118089001180921C1180802111808900D3
:10088000921E1180921C1180802111808900921E7D
:100890001180921C11804021921E1180921C1180A7
:1008A000704700001A08024080211F4A1180890009
:1008B000921E1180921C1180802111808900921E4D
:1008C0001180921C1180802111808900921E11805C
:1008D000921C1180802111808900921E1180921C2F
:1008E0001180802111808900921E1180921C11803C
:1008F0008021921E118089001180921C118080211C
:10090000921E118089001180921C1180802111801B
:100910008900921E1180921C11804021921E11802C
:10092000921C1180704700001A08024080211F4A63
:1009300011808900921E1180921C118080211180EB
:100940008900921E1180921C1180802111808900E3
:10095000921E1180921C11808021921E11808900AC
:100960001180921C11808021921E118089001180BB
:10097000921C1180802111808900921E1180921C8E
:100980001180802111808900921E1180921C11809B
:10099000802111808900921E1180921C11804021BB
:1009A000921E1180921C1180704700001A080240AC
:1009B000024A11600122027070470000000000200E
:1009C0002DE9F04107460C4615462CB1002D03DBFE
:1009D0003846FFF769FF15E02CB1002D03DA3846E1
:1009E000FFF7A4FF0EE0002C05DB002D03DA3846EC
:1009F000FFF718FF06E0002C04DA002D02DB384672
:100A0000FFF7CEFE261E01DB304600E0704241B209
:100A100007480068FFF71EFE2E1E01DB304600E08F
:100A2000704241B202480068FFF72CFEBDE8F08139
:100A30000000002002E008C8121F08C1002AFAD1F5
:100A400070477047002001E001C1121F002AFBD14E
:100A5000704770B586B0FFF751FCFFF719FD02A88B
:100A600000BF01A800BF02AC01AD02A92846FFF7F4
:100A70009FFF42F210712046FFF7A4FD02A8FFF786
:100A800023FD064631462046FFF724FD2046FFF7AA
:100A9000ADFD46F2A8112046FFF79EFD02A8FFF724
:100AA00016FD064631462046FFF750FD2046FFF76B
:100AB000B7FD05E06FF04502511F2846FFF780FFA4
:100AC000F8E70000E40A0008000000201800000019
:100AD000340A0008FC0A0008180000200004000086
:100AE000440A000800000000007A030A0000000029
:0C0AF000000000000102030406070809D2
:040000050800018965
:00000001FF
