:020000040800F2
:10000000388400203D02000845020008470200082D
:10001000490200084B0200084D02000800000000E1
:100020000000000000000000000000004F02000877
:1000300051020008000000005302000855020008A9
:10004000570200085702000857020008570200082C
:10005000570200085702000857020008570200081C
:10006000570200085702000857020008570200080C
:1000700057020008570200085702000857020008FC
:1000800057020008570200085702000857020008EC
:1000900057020008570200085702000857020008DC
:1000A00057020008570200085702000857020008CC
:1000B00057020008570200085702000857020008BC
:1000C00057020008570200085702000857020008AC
:1000D000570200085702000857020008570200089C
:1000E000570200085702000857020008570200088C
:1000F000570200085702000857020008570200087C
:10010000570200085702000857020008570200086B
:10011000570200085702000857020008570200085B
:10012000570200085702000857020008570200084B
:10013000570200085702000857020008570200083B
:10014000570200085702000857020008570200082B
:10015000570200085702000857020008570200081B
:10016000570200085702000857020008570200080B
:1001700057020008570200085702000857020008FB
:100180005702000857020008DFF80CD001F032F8DF
:10019000004800476927000838840020FEB4424622
:1001A0004B4654465D463EB400F091F83EBC904646
:1001B0009946A246AB46FEBC00F030F880EC200B1E
:1001C0007047C0EC200B704790EC200B7047D0ECD0
:1001D000200B704785460D98DDF838E00F9B5DF8E1
:1001E000042B20E90C009DE8FE1F854601BD4DF85B
:1001F00008ED0DF1080E4DF804ED2DE9FF1F00216B
:1002000002B4694681B000F048FFDDF840E012B06A
:1002100070470000842A0000E42B00004DF808ED30
:100220000DF1080E4DF804ED2DE9FF1F002102B479
:10023000694681B000F098BF704700BF064880470C
:1002400006480047FEE7FEE7FEE7FEE7FEE7FEE7BB
:10025000FEE7FEE7FEE7FEE7F1150008890100086A
:1002600070B5054600F03FF904461DB1284600F080
:100270007FF808B1A06801E055F8140C2061012056
:100280002073BDE8704000F059B8040001D000F0C0
:10029000E1F82046FFF7E4FF70B5054600F023F9CA
:1002A0000446284600F064F838B12946A06900F0F9
:1002B000F5F8C169491CC16102E0A5F12000C169DE
:1002C000012902D1A1698161A061012070BD70B5D1
:1002D00000F009F9846905460CB900F02FF804F123
:1002E0002006304600F044F868B1E069266801282D
:1002F00002D0401EE0610BE0A16904F17800A96121
:1003000000F00BF804E0E069012801D1A069A861C0
:10031000304670BD002300F023B910B5044600F04C
:10032000E2F8783CC069214600F04EFC002804D178
:100330002046BDE8104002F0EFB910BD10B500F046
:10034000D2F8016919B100220261884701E0806892
:100350008047AFF30080000002680B689A4205D125
:1003600040684968884201D10120704700207047E9
:1003700010B50349FFF7F0FF80F0010010BD000049
:10038000D02900082DE9F14DD0E90C8581B0064651
:10039000D0F828A000F0A7F80446A6F120073046C0
:1003A00000F058F83046FFF7E3FF08B1606800E05E
:1003B000B868206100F028FDBDE8FC8D00F04AF827
:1003C0006669BE4202D100F032FC0DE03069606126
:1003D00000F02DFC05E000F03DF8FFF7AFFF00F066
:1003E00026FC60693061666100273C4606F1200BFF
:1003F00011E02E686B4600223146584600F078FC2A
:1004000008B100F0EBFB3146104802F036F800B1BD
:1004100001274544641C5445EBD38FB1684602F074
:1004200071F8042000F08CFB694602F063F8044682
:10043000684602F076F8064A0449204600F03DFC82
:100440005846FFF70DFF00F0F2FBB5E7302A000831
:100450002325000870B50546466A00F044F80446B6
:100460002846FFF785FF20B12946606900F016F89D
:1004700007E0A5F12000C169491EC1612168491E3C
:1004800021604169491C4161016911B961690161DA
:100490006061284600F07EFE304670BD70B50400F5
:1004A0000D4609D004F12000FFF756FF20B1206867
:1004B000A84201D1204670BD002000F041FBD5E9E3
:1004C0000023A0F15801C1E90023002240F85C2C70
:1004D00040F8642C40F8682C40F8785D70BD00004E
:1004E00010B5AFF3008070B500F020FB046805463E
:1004F000A4B9202002F0E2F9040011D0094900203B
:100500002C60C4E900010849A1602073206160618A
:100510000649A06109B100F043FBE061204670BDCF
:10052000AFF30080230E0008E10400080000000083
:10053000017A51B9417A89B1491E417241680A1D57
:1005400042600968016004210172C9B2491E01724A
:1005500001680A0E0902016010467047B02070471A
:100560002DE9FF4D8CB05FEA000B4FF000001646FE
:100570000D4607900990059008900DD0BBF1010F32
:100580000AD0BBF1020F01D0002204E2A86BA864DC
:10059000E86B04902C6C0FE095F85000C007E86CF5
:1005A000049078D10F9818B104980068C0F3074000
:1005B000049901EB800442E00F98022811D02788AB
:1005C000002F68D06088241D00F00102394662F3D4
:1005D0005F0161B1012934D002297DD00329EBD11B
:1005E0002FE12768002FECD060680834ECE7BBF1FE
:1005F000000F24D0A96C002301EB000806A900918C
:1006000030460F22194600F026FC0698804516D881
:1006100008EB0701814212D9A96CA963201D049936
:10062000C5E90F102846FFF737FE0028ACD0206838
:100630000F2240F31E0004443046049423E0241D9E
:10064000BAE7BBF1000F27D006A90023009130467E
:100650000D22194600F0FFFB0698296A88426ED1E8
:10066000E86AA0426BD1206804A940F31E0004444C
:100670000023009130460F220494194600F0D4FB69
:1006800030460022049504A900230091194600F089
:10069000CBFB22463DE2D6E0A96C002301EB00082B
:1006A0000AA9009130460F22194600F0D4FB0A989F
:1006B0007F1E804543D808EB070181423FD9676818
:1006C000B81C0ED0781C0ED0206806ABC20F39467D
:1006D000284600F00DFB00E033E078B302281DD07F
:1006E00004E0022257E105F15800069004A9002316
:1006F000009130460D22194600F0ADFB0498EC62E3
:100700002862069868622068022140F31E000219E0
:100710002846FFF791FD3A4680215FE004A90023B7
:10072000009130460D22194600F095FB0498EC62CA
:1007300028620698A86205F12800E3E7FFE708347D
:100740003AE72168069121F00048BBF1000F10D074
:100750000AA90023009130460D22194600F07BFBC8
:100760000A98296A884240D1E86AA0423DD1012016
:100770003CE0A96C401E01EB000A0AA9002300918D
:1007800030460F22194600F066FB0A9882453AD897
:100790000AEB0701814236D904F1040A00270AE076
:1007A0006B4600222846DAF8001000F0A1FA20B9C2
:1007B0000AF1040A7F1C4745F2D3474523D104A917
:1007C0000023009130460D22194600F044FB0498A6
:1007D000EC6228620020D34A022168622846FFF7B3
:1007E0002BFD062010B0BDE8F08D002058B1002090
:1007F000C5E90A8004202863201D686306984045E7
:1008000006D1012007900698404515D1002014E03C
:1008100004EB8800002250F8041F134641F31E0128
:100820000C1804A9009130460495114600F0FCFA1A
:1008300030460F22049465E1042000EB8800044454
:10084000FDE60122A7E00498006801900498001DCD
:1008500002900F9810B30198000C8DF80D000198CC
:100860000004019002208DF80C0001A8FFF760FE43
:100870000446B0281AD03F2C41D800F03F01042094
:1008800000EB810706A90D24002300913046224683
:10089000194600F0E0FA0698384442E000208DF84E
:1008A0000D000198000201900320DCE70998B0B91F
:1008B00005980028C5D004A8002300900E221946F0
:1008C000304600F0C8FA0499059105A9002300916B
:1008D00030460F22194600F0A7FA01200890079829
:1008E000002870D0002204A90091304613460495D8
:1008F000114600F099FA0898002878D0FEE07F2C85
:1009000019D800F03F01042000EB810706A90D244F
:100910000023009130462246194600F09CFA0698C2
:10092000C01B049004A800230090224619463046BC
:1009300000F07AFA99E78F2C1AD80007040C01A866
:10094000FFF7F6FD54EA00143FF4CBAE0023224635
:100950001946304600F096FA08B103221BE0200445
:1009600001D5012009906004E4D5012005907CE7C1
:100970009F2C16D800F00F020D2A0BD00F2A09D099
:1009800006A9002300910D243046194600F063FAB1
:100990000698C6E7042201212846FFF74DFC0920EE
:1009A00020E7AF2C10D804F007000121401C814043
:1009B0000A01103A200703D5012042F48042059035
:1009C0000023194658E0AAE0B72C35D8B12C0FD037
:1009D000B22C15D0B328DDD101A8FFF7A9FD00F096
:1009E0000F0100F0F000491C41EA00322BE073E0F7
:1009F00001A8FFF79DFD0200CCD00F2AE0D9C9E77E
:100A000000273C4601A8FFF793FD00F07F01A140BD
:100A10000F43000601D5E41DF4E706A90D240023C9
:100A2000009130462246194600F015FA069800EB70
:100A3000870000F5017074E7BF2C07D800F00700AD
:100A4000401C40F400220123012115E0C72C25D8C9
:100A500009D101A8FFF76CFD02009BD00F2A99D89D
:100A60000023042108E0C62C0DD000F00700401C34
:100A700040F4202203231946304600F003FA0028F0
:100A80003FF458AF69E701A8FFF752FD00F00F01EE
:100A900000F0F000491C41EA0032EBE7C82C0BD013
:100AA000C92C09D0CF2CAAD9D72CA8D800F0070080
:100AB000401C40F400220DE001A8FFF739FD00F0D2
:100AC0000F01491C00F0F00041EA0032C82C01D1AE
:100AD00002F580120523B7E704A8002300900F2237
:100AE0001946304600F0B7F90499059105A900238D
:100AF000009130460E22194600F096F90949304619
:100B00000F22049104A900230091194600F08CF9EA
:100B1000044A03212846FFF78FFB072062E60820DE
:100B200060E6000085030008034870470248001D86
:100B3000011F8860001D70472000002070470000E2
:100B400070B50446FFF7CFFC7834054626462046AC
:100B500001F0B4FE040007D13146E86900F029F83D
:100B6000040001D1FFF77CFB0AA104F12000D1E9C8
:100B70000021C0E900210021A162E16261612161DF
:100B8000A161E161A868E0606868A06004F1780094
:100B900070BD000041524D00432B2B0000000000AF
:100BA00010B5882001F08AFE002801D000210170D4
:100BB00010BD802902D808B1017809B10020704722
:100BC000012100F8081B704718B100F1080291429A
:100BD00001D00020704700210170704770B5FFF709
:100BE00082FC4469054614B90020FFF739FBE0692F
:100BF00004F12006401CE0613046FFF7B9FB0028F5
:100C000001D0266803E0286800F10100286002D0C6
:100C10004FF0000200E022684FF000013046FFF77D
:100C20000BFB3046FFF7E3FA3046FFF72EFB70B5BB
:100C3000FFF759FC446905460CB9FFF77FFB606973
:100C4000401E606117D104F120063046FFF790FB8B
:100C500021696961E56928B104F178002668FFF728
:100C60005CFB01E000202061002D04D13046BDE88E
:100C7000704000F0FBBA70BD73B50C46FFF733FC53
:100C800054F80C1C203C31B1E169491EE161016856
:100C9000491E01607CBD616804F1780509B12846F0
:100CA00088472846BDE87C40FFF737BBFFF7D2FBFB
:100CB0002846FFF732FBFFF791FF70B50D46A0F114
:100CC00058044C49A160012140F85C1C40E91E52C7
:100CD000FFF709FC01682A46491C016000212046F3
:100CE000FFF7AAFA2046FFF782FA2046FFF7CDFA6F
:100CF0002DE9FF4D9A4693460E468046FFF738FB96
:100D0000002875D1A8F12000012708F158080568CE
:100D10000024CDF808803146284601F0AEFB10B122
:100D2000CAF8008062E0284601F040FC019030469D
:100D300001F03CFC00903049019801F09EFB20B985
:100D40002D49009801F099FB20B1DDE9001001F078
:100D5000A4FB08BB2849019801F08FFBC0B1307A91
:100D6000297A00F0030001F00301641C31EA00025B
:100D70003ED130EA010100D077B1C00700D1002791
:100D80000298ED68F6680028C5D000680290C2E7B6
:100D9000012C02D06CB109D02AE01849304601F08C
:100DA0006CFB18B1BBF1000F22D1B9E7BBF1000F0A
:100DB0001ED11349019801F060FB20B91149019837
:100DC00001F05BFBA0B100200090019033462A4661
:100DD00003A902A801F0FEFB002804D00399CAF879
:100DE00000101CB1022004B0BDE8F08D0120FAE72C
:100DF0000020F8E7790C0008F4290008582A0008B8
:100E0000002A00080C2A000810B5FFF76CFB0169E6
:100E100019B100220261884701E040688047AFF3C2
:100E20000080FFF78BBA000010B5029C31B1012998
:100E30000DD003290BD004290BD108E04BB90F2AA0
:100E400007D800EB820021684160002010BD01201E
:100E500010BD022010BD10B5029C31B101290DD08A
:100E600003290BD004290BD108E04BB90F2A07D86E
:100E700000EB820040682060002010BD012010BD02
:100E8000022010BD2DE9F04DC0B09846044631B1A6
:100E9000012918D0032979D0042979D176E0B8F155
:100EA000000F75D190B2231D00F40052A16B05E034
:100EB000C50701D020C91D6040081B1D0028F7D1BF
:100EC000F2BBA1635EE0150C96B2102D01D2012099
:100ED00000E000208246A819102801D9012700E06F
:100EE0000027B8F1010F03D0B8F1050F50D101E090
:100EF0003FBB01E020284BD84FF0000BBAF1000FA8
:100F000008D02078012805D184F800B004F1480009
:100F100080EC200B47B16078012805D184F801B03E
:100F200004F1C800C0EC200BBAF1000F02D06846F3
:100F300080EC200B20A883460FB1C0EC200B01E011
:100F400020E025E06B46A06B08E0014603EBC502FC
:100F5000D1E900C1C2E900C108306D1C761EF4D28F
:100F60004146B8F1010F00D0002100EB8100A063E1
:100F7000BAF1000F02D0184690EC200B17B158467A
:100F8000D0EC200B002040B0BDE8F08D0120FAE746
:100F90000220F8E710B50468904801F108024368A0
:100FA00003444FF0FF30934204D0136843F31E0311
:100FB000134400E003460A6842F31E021144A142B2
:100FC00002D89C4201D3012010BD002010BD33B5D2
:100FD0000446824881B0824D016842680144104451
:100FE000401AC21002980823801E029002A80095A1
:100FF00000F043F97B49002370B1026842F31E02FE
:101000000244A2644268012A09D0002A0ADA001DBB
:10101000E064012020650BE00422636115E00222F8
:10102000636112E042F31E02001D1044C4E9130381
:10103000E26C1068002815DAC0F3036050B1012893
:101040000AD002280CD0012263612046FFF7F4F891
:1010500009203EBD644800E06448606100203EBD58
:101060006348FAE740F31E001044F6E70C460546D5
:101070002846216CFFF7ABFF50B9206C28616B69E3
:101080002246294601209847072803D00828EFD098
:10109000AFF30080201DFFF79DF8F0B50446C0684F
:1010A000D3B00E46012768B3582001F007FC0500B5
:1010B0002AD0142204F10C0105F10C0000F0ACF868
:1010C000182204F1200105F1200000F0A5F804F138
:1010D000380005F1380C0FC88CE80F00E560F06BA4
:1010E00030644022311D01A800F096F88DF80070A0
:1010F0008DF8017012AF32AD20461099FFF767FFEF
:10110000D0B910E0E760EAE7052236492046FFF74C
:1011100093F805E09DF8010010B92846D0EC200BAB
:1011200053B00920F0BD63696A4621460020984704
:10113000062809D00828DFD09DF800000028E9D152
:10114000384690EC200BE5E79DF8000010B93846D2
:1011500090EC200B9DF8010010B92846D0EC200B34
:1011600031462046FFF782FF0546006908640C46B9
:101170000A466B69294602209847072803D00828A9
:1011800004D0AFF30080201DFFF724F82146284645
:10119000FFF76CFF70B5C1680546D1B101291AD0BF
:1011A0000C46142205F10C000C3100F035F8182221
:1011B00004F1200105F1200000F02EF804F13800C0
:1011C00038350FC885E80F002046BDE8704001F0B3
:1011D000A3BAAFF300800020E86070BD14020008DD
:1011E000950F0008010000FF150300080000000033
:1011F00000000000064C074D06E0E06840F00103E7
:1012000094E8070098471034AC42F6D3FEF7C0FFCD
:10121000782C0008982C000840EA01039B0703D0B3
:1012200009E008C9121F08C0042AFAD203E011F825
:10123000013B00F8013B521EF9D2704738B56846B1
:1012400001F044F90420FFF77BFC694601F036F910
:101250000446684601F049F9024A03492046FFF76F
:101260002CFD0000EB240008242A00088268002AD4
:1012700002D001460120104770472DE9F05F9946E2
:1012800015460F4683464FF0FF36DDF828A011E0E3
:10129000A819441009FB047080460146584652467E
:1012A0009047002802D004DA254603E04046BDE816
:1012B000F09F2646A5EB06000128E9DC0020F6E7B2
:1012C000FFF7B5FCFFF7B3FCFEF768FFFFF7AFFCD5
:1012D000FEF764FFF0B50A4600210023002400BF9A
:1012E0003DE0012505FA01F3156805EA03049C4277
:1012F00034D105684F000326BE40B543056015791B
:101300004E00B5400668354305601579012D02D0C1
:101310001579022D16D185684F000326BE40B543CE
:10132000856055794E00B5408668354385604568CF
:1013300001268E40B5434560456896798E40B6B229
:1013400035434560C5684F000326BE40B543C560C0
:10135000D5794E00B540C6683543C560491C102993
:10136000BFD3F0BDF0B5002300244D07ED0E02FA07
:1013700005F3CE1000F1200555F826504E07F70E64
:101380000F26BE40B543CF1000F1200646F8275087
:10139000CE1000F1200555F8265045EA0304CE1082
:1013A00000F1200545F82640F0BD000029B1064AAD
:1013B00012680243044B1A6004E0034A1268824335
:1013C000014B1A60704700003038024029B1064ACC
:1013D00012680243044B1A6004E0034A1268824315
:1013E000014B1A60704700002038024029B1064ABC
:1013F00012680243044B1A6004E0034A12688243F5
:10140000014B1A60704700004438024029B1064A77
:1014100012680243044B1A6004E0034A12688243D4
:10142000014B1A60704700002438024021B1028845
:1014300042F04002028004E002884FF6BF731A4077
:101440000280704710B504462448844208D1012127
:101450008014FFF7DBFF0021A014FFF7D7FF3CE06B
:101460001F48844208D101210014FFF7AFFF00217B
:101470002014FFF7ABFF30E01A48844208D1012165
:10148000C013FFF7A3FF0021E013FFF79FFF24E045
:101490001548844208D101214014FFF7B7FF00210D
:1014A0006014FFF7B3FF18E01048844209D101210E
:1014B0000805FFF7ABFF00214FF48010FFF7A6FFF0
:1014C0000BE00B48844208D101214805FFF79EFF3D
:1014D00000214FF40010FFF799FF10BD00300140CC
:1014E00000380040003C0040003401400050014002
:1014F0000054014010B50022028802F441520B88CA
:101500004C8823438C882343CC8823430C89234372
:101510004C8923438C892343CC8923431A4302807B
:10152000838B4FF2FF74234083830B8A038210BDA9
:1015300070B500200022022300240221274D2D68CF
:1015400005F00C0020B1042806D0082834D107E0AB
:10155000234D244E356033E0234D224E35602FE07D
:101560001E4D2D1F2D68C5F380541C4D2D1F2D6859
:1015700005F03F0154B11C4DB5FBF1F5174E361F78
:101580003668C6F3881605FB06F209E0144DB5FB74
:10159000F1F5124E361F3668C6F3881605FB06F2C3
:1015A0000E4D2D1F2D68C5F301456D1C6B00B2FB60
:1015B000F3F50C4E356003E0094D0A4E356000BF6F
:1015C00000BF064D2D68C5F30315084E705D054D2F
:1015D0002D68C540034E356070BD000008380240DC
:1015E0000024F4000C00002000127A0010000020FB
:1015F00010B51548006840F470001349086013489E
:10160000006840F001001149086000200F490831CE
:1016100008600E4800680E4908400C4908600D48F3
:10162000091D0860081F006820F48020091F086059
:10163000002006490C31086000F0C8FD4FF0006042
:1016400001498039086010BD88ED00E00038024093
:10165000FFFFF6FE1030002421B1028842F00102A3
:10166000028004E002884FF6FE731A400280704741
:1016700070B5002400220023058C4FF6FE7635401D
:101680000584028C8388048B4FF68F752C40B51E21
:101690002C400D882C43751E2A408D892A434D8885
:1016A0002A43104DA84202D00F4DA84213D14FF645
:1016B000F7752A40CD892A434FF6FB752A408D885D
:1016C0002A434FF6FF652B404FF6FF552B400D8AFE
:1016D0002B434D8A2B43838004838D6845630284AA
:1016E00070BD000000000140000401400A460021D6
:1016F000018B4FF6F77319401143018370470000C7
:1017000000220288184B98420ED0184B98420BD0FA
:10171000B0F1804F08D0164B984205D0154B984237
:1017200002D0154B984204D14FF68F731A404B8864
:101730001A43124B984207D0114B984204D04FF6EF
:10174000FF431A400B891A4302804B68C3620B881F
:101750000385054B984202D0044B984201D18B7A05
:10176000038601238382704700000140000401408A
:101770000004004000080040000C00400010004041
:101780000014004000B587B001210846FFF70EFEA7
:10179000E020059002208DF8180000208DF81A0036
:1017A00002208DF8190001208DF81B0005A91D48A5
:1017B000FFF790FD052211461A48FFF7D3FD0522D9
:1017C00006211848FFF7CEFD052207211548FFF72F
:1017D000C9FD01210803FFF709FE1348FFF732FE98
:1017E0000020ADF80000ADF80400ADF80E004FF495
:1017F0008270ADF802004FF44070ADF80A0002208C
:10180000ADF806000120ADF808001820ADF80C0076
:1018100069460548FFF76EFE01210348FFF706FE03
:1018200007B000BD000002400030014038B56846F6
:1018300000F084FE0420FFF783F9694600F076FE8D
:101840000446684600F089FE024A03492046FFF735
:1018500034FA00005B2500083C2A00081CB5102063
:10186000009001208DF8040000208DF80600022071
:101870008DF8050000208DF8070069460148FFF744
:1018800029FD1CBD000002401CB54FF480500090A3
:1018900001208DF8040000208DF8060002208DF84C
:1018A000050000208DF8070069460248FFF712FD89
:1018B0001CBD0000000402401CB501210420FFF7FC
:1018C00075FD4FF47470009001208DF80400002025
:1018D0008DF8060003208DF8050000208DF8070024
:1018E00069460248FFF7F6FC1CBD000000080240F4
:1018F0002DE9F04105460E4617461C466E606868A5
:1019000010B90020BDE8F08147F00F0220212846E1
:1019100000F01AF800222121284600F015F80022D4
:101920002221284600F010F822462321284600F004
:101930000BF800222421284600F006F8214628460C
:1019400000F036F90120DDE72DE9FC4104460D46A3
:10195000164605F07F008DF804008DF8056060687C
:10196000026851688847606801686B4602220F6808
:1019700001A9B8476068026891688847BDE8FC81A2
:1019800030B52DED028B83B00446E8208DF80800B9
:1019900000208DF809008DF80A006068026851681F
:1019A00088476068016801AB03220D6802A9A84757
:1019B0006068026891688847204600F0F5F89DF855
:1019C00005009DF8061040EA012000B200EE900AE2
:1019D000F8EEE00A20EE200ADFED040A20EE208A6D
:1019E000B0EE480A03B0BDEC028B30BD35FA8E3C38
:1019F00030B52DED028B83B00446EA208DF8080047
:101A000000208DF809008DF80A00606802685168AE
:101A100088476068016801AB03220D6802A9A847E6
:101A20006068026891688847204600F0BDF89DF81C
:101A300005009DF8061040EA012000B200EE900A71
:101A4000F8EEE00A20EE200ADFED040A20EE208AFC
:101A5000B0EE480A03B0BDEC028B30BD35FA8E3CC7
:101A600030B52DED028B83B00446EC208DF80800D4
:101A700000208DF809008DF80A006068026851683E
:101A800088476068016801AB03220D6802A9A84776
:101A90006068026891688847204600F085F89DF8E4
:101AA00005009DF8061040EA012000B200EE900A01
:101AB000F8EEE00A20EE200ADFED040A20EE208A8C
:101AC000B0EE480A03B0BDEC028B30BD35FA8E3C57
:101AD0002DE9FF4104460D4616461F46E8208DF8C5
:101AE000080000208DF809008DF80A008DF80B0021
:101AF0008DF80C008DF80D008DF80E0060680268FE
:101B000051688847606801686B460722D1F800C0B9
:101B100002A9E0476068026891688847204600F0A3
:101B200043F89DF801009DF8021040EA012000B240
:101B300000EE900AF8EEE00A20EE200ADFED190A26
:101B400020EE200A85ED000A204600F02DF89DF8D1
:101B500003009DF8041040EA012000B200EE900A54
:101B6000F8EEE00A20EE200ADFED0E0A20EE200A51
:101B700086ED000A204600F017F89DF805009DF854
:101B8000061040EA012000B200EE900AF8EEE00AEA
:101B900020EE200ADFED030A20EE200A87ED000A7E
:101BA000BDE8FF8135FA8E3C90ED000A70470000D9
:101BB00000B5024621B1102907D030290FD109E024
:101BC0009FED0A0A82ED000A0DE09FED090A82ED01
:101BD000000A08E09FED070A82ED000A03E01046C4
:101BE000FFF7E2FF00BF00BF00BD0000295C0F3C13
:101BF000295C8F3C295C8F3D704770B504462046B8
:101C000000F004F8054600F0B9FC70BD70472DE9FE
:101C1000F041054614460E46506900F02EFC01279F
:101C200018B1E7602562BDE8F081206A0028FAD08B
:101C3000E069A842F7D13046A16900F01EFC0028F7
:101C4000F1D0606A18B1002027616062EBE7206A7A
:101C50006062E8E710B51446506900F00EFC0028F9
:101C600002D000202062E06010BD00002DE9F041AC
:101C70001468984616460D460746A047284600F0C9
:101C800095FC214900F0F9FB30B10023324638467B
:101C9000A968FFF7EBFF2AE0284600F087FC1B4904
:101CA00000F0EBFB18B305F110041AE0F06810B176
:101CB0002079800714D544B1207910F0010F04D0A9
:101CC0002146384600F084F802E0606807EB2020E7
:101CD000234632462168FFF7C9FF3069002811D139
:101CE0000834E96805EBC1001030A042DED8746802
:101CF000002C07D04346324629463846A446BDE864
:101D0000F0416047BDE8F081002A00080C2A000875
:101D10002DE9FF4D82B0824614468B464FF00008F5
:101D200010460E9D00F042FC274900F0A6FB78B15A
:101D3000DA4504D1A068059900F09FFB40BB0095EF
:101D4000A26859465046059BFFF7E2FF804636E001
:101D5000204600F02BFC1D4900F08FFB78B326468F
:101D6000103426E06068C10705D02146504600F0D7
:101D70002FF8074601E00AEB20275F450BD12068CA
:101D8000059900F07AFB30B12079A046800716D57E
:101D90000120286013E02079800709D5009522688A
:101DA00059463846059BFFF7B3FF8046286830B98F
:101DB0000834F06806EBC0001030A042D2D806B05C
:101DC0004046BDE8F08D0000002A00080C2A0008FB
:101DD0000268496802EB2121096808447047000045
:101DE0002DE9FF4D8CB01446DDE91C688B460027B9
:101DF0001046199D00F0DAFB704900F03EFB98B3E5
:101E0000A0680F9900F039FBC8B1DBF8000010B1F1
:101E10000C99884204D13078022801D0286828B172
:101E2000012028600020CBF80000C3E001203070C2
:101E30001A98C8F800000C98CBF8000012E0DDE911
:101E40001A1202A880E846011898CDE90005A26898
:101E500059460F9B0C98FFF7C3FF002803D0286852
:101E6000002800D10127A5E0FFE7204600F09EFBF7
:101E7000534900F002FB002869D018980B9440F3F6
:101E8000400008901898103440F30000099089E051
:101E9000606800F001010A910C9969B10A9969B171
:101EA00021460C98FFF794FF82461A9850B120798A
:101EB000800707D5012006E00020F5E70C9901EB2B
:101EC0002020F1E70020009020680F9900F0D5FA5B
:101ED00020B3DBF8000008B1504507D16068C107A6
:101EE00002D03178012901D0296829B10120286068
:101EF0000020CBF8000029E0C00701D0022000E05C
:101F0000012030700098C8F80000CBF800A03DE038
:101F1000089800E00998401C4CD142E0009900204C
:101F20008DF81C0007AACDE90428069006AB189886
:101F3000CDE90213CDE900052268594650460F9BB2
:101F4000FFF74EFF0028286802D020B1002731E0BB
:101F50000028FBD125E0069820B92079C00701D0E0
:101F600020680690307858B19DF81C10022901D1E4
:101F7000022805D01B98006880B1069988420DD1CF
:101F80009DF81C0030701B9806990160D8F800007D
:101F9000012730B10A980028BCD0B9E70120286099
:101FA000D4E708340B98C16800EBC1001030A042A0
:101FB0003FF66EAF10B03846BDE8F08D002A00083D
:101FC0000C2A00080146486870470146C8687047F7
:101FD00030B585B005460C4601210220FFF7E6F931
:101FE000032208211648FFF7BDF94FF480700390D3
:101FF00000208DF812008DF8130002208DF81000DB
:1020000003208DF8110003A90D48FFF763F90121A2
:102010004804FFF7EBF90020ADF80000ADF802002E
:102020000194ADF808008DF80A0069460548FFF7ED
:1020300067FB01210348FFF70FFB05B030BD00002F
:10204000000402400044014030B585B005460C460E
:1020500001210220FFF7AAF9032209211648FFF700
:1020600081F94FF40070039000208DF812008DF874
:10207000130002208DF8100003208DF8110003A931
:102080000D48FFF727F901218804FFF7AFF9002079
:10209000ADF80000ADF802000194ADF808008DF82D
:1020A0000A0069460548FFF72BFB01210348FFF7AB
:1020B000D3FA05B030BD00000004024000480140E2
:1020C000034A1268B2FBF1F2521E426070470000F0
:1020D0000C000020034A1268B2FBF1F2521EC260EB
:1020E000704700000C00002010B586B00446702038
:1020F000ADF804000120ADF806000220ADF8100094
:102100000020039001A90448FFF7B2FA0821024811
:10211000FFF7ECFA06B010BD0044014010B586B0E0
:1021200004467020ADF804000120ADF8060002203E
:10213000ADF810000020039001A90448FFF798FAB9
:1021400008210248FFF7D2FA06B010BD004801404E
:1021500000B502460B46642B00DD64231046FFF7F2
:1021600031FF401C58436421B0FBF1F0401E9060E9
:1021700001499068086000BD3444014000B5024642
:102180000B46642B00DD64231046FFF71EFF401C46
:1021900058436421B0FBF1F0401E10610149106901
:1021A000086000BD344801400249016000BF024997
:1021B00001607047902B0008B02B000810B5044652
:1021C0002046FFF723FD0446204610BD0CB5002035
:1021D000019000903448006840F480303249086033
:1021E00000BF3148006800F4003000900198401CA6
:1021F0000190009818B90198B0F5A06FF1D12A4864
:10220000006800F4003010B10120009001E00020CF
:1022100000900098012846D123484030006840F0E3
:1022200080502149403108602048006840F4404017
:102230001E4908601C48083000681B4908310860C6
:102240000846006840F4004008600846006840F412
:10225000A05008601648091F0860081F006840F079
:102260008070091F086000BF0F48006800F0007010
:102270000028F9D040F205700E4908600A4808307D
:10228000006820F00300084908310860084600682B
:1022900040F00200086000BF03480830006800F00A
:1022A0000C000828F8D10CBD003802400070004036
:1022B00008544007003C024001490160704700009B
:1022C000D02B0008024A1160012202707047000002
:1022D000000000202DE9F04107460C461546261E59
:1022E00001DB304600E0704241B208480068FFF769
:1022F0002FFF2E1E01DB304600E0704241B2034842
:102300000068FFF73BFFBDE8F081000000000020FF
:102310007047000030B5416082608381144D44688D
:10232000AC4202D10024847321E0124D4468AC42D7
:1023300002D1012484731AE00F4D4468AC4202D1EB
:102340000224847313E00D4D4468AC4202D103248F
:1023500084730CE00A4D4468AC4202D104248473B7
:1023600005E0084D4468AC4201D10524847330BDBA
:102370000030014000380040003C00400034014083
:10238000005001400054014070B50446002014E0A4
:1023900000BF65682D8905F00205002DF9D00D5CA0
:1023A0006668B58100BF65682D8905F00105002DBF
:1023B000F9D06568AD891D54401C9042E8D360682F
:1023C000008900F0200028B9E07B40F02000E07395
:1023D000022070BD6068008900F0400028B9E07BF1
:1023E00040F04000E0730220F3E700BF606800891E
:1023F00000F080000028F9D16068008900F010002A
:1024000028B9E07B40F01000E0730220E1E70020F3
:10241000DFE700000146887B074A105C08B1012015
:10242000704701208A7B044B98540A7B90408A684D
:1024300050830020F4E70000040000200021827B8C
:10244000034B9954027B01219140826811837047AC
:102450000400002010B504462046FFF72DFF044677
:102460000448206000206060A060A081E073A07339
:10247000204610BD182C0008704770B50C46A042CD
:1024800007D0406800BF05462046406800BF85422F
:1024900001D1012070BD002070BD70B50C46A04276
:1024A00009D0406800BF05462046406800BF85420D
:1024B00001D0012070BD002070BD000010B500F0FB
:1024C00051F80149016010BD302C000810B500F032
:1024D0004FF80149016010BD302C000810B500F024
:1024E00004F8BDE8104000F049B810B5AFF3008023
:1024F00010BD000010B500F035F80149016010BDB5
:10250000442C000810B500F033F80149016010BDFB
:10251000442C000810B500F004F8BDE8104000F0AD
:102520002DB810B5AFF3008010BD000010B500F05D
:1025300019F80149016010BD582C000810B500F0D1
:1025400017F80149016010BD582C000810B500F0C3
:1025500004F8BDE8104000F011B810B5AFF30080EA
:1025600010BD000001490160704700006C2C00089C
:1025700001490160704700006C2C000810B500F0A4
:10258000CBF810BD10B5040007D1012405E0FEF71B
:10259000CBFA006800B904488047204600F08EF965
:1025A0000028F4D010BD00002D18000810B530B17F
:1025B000006820B14038C46B2CB1204610BDFEF736
:1025C0003DFE002010BDFEF739FEF6E70020FEF7C5
:1025D000B5BA00002DE9F04D00248AB00126CDE9FE
:1025E00008649B4617468A46254600B10068CAF82B
:1025F000005080461046FFF7D9FF1149FFF73DFF15
:1026000008B1B86800E0032008A907AACDE90421B1
:102610008DF81C5006AB069509A9CDE90263CDE9FA
:1026200000015B463A4651464046FFF7D9FB10B1E0
:10263000089800B101240AB02046BDE8F08D0000E2
:102640000C2A00082DE9F0450E4601688BB0824641
:1026500051F8081C150001EB00040A9400684FF0C3
:10266000000850F8047C18D0214800902148CDF88B
:102670000C80CDF8108001900DF1140CCDF808807D
:10268000CDF82080CDF824808CE860043946002302
:102690006A462046FFF7EAFA099C24BB0120029013
:1026A000B7420BD002A8009033463A465146CDF8C7
:1026B00008800A98FFF72CFB0298A0B129463846FB
:1026C000FFF7DBFE08B10A9C0DE0CDF80C80CDF8D9
:1026D00000802B463A4603A90AA8CDF80480FFF7EC
:1026E00079FF00B1039C0BB02046BDE8F0850000E7
:1026F0000F1C0008551C000802E008C8121F08C182
:10270000002AFAD170477047002001E001C1121F72
:10271000002AFBD17047000010B5002821D0114BD2
:102720000022001F196803E0814203D80A46496865
:102730000029F9D152B11368841A9C4204D100686F
:1027400018441060104602E0506000E0186039B193
:1027500002680B1A934203D10B681A44026049685D
:10276000416010BD2C0000202DE9F04F95B0FEF720
:102770003FFFFFF7A1F80FA8FFF716FD0EA800BF57
:102780000FAC83460FA95846FFF79CFDFEF7FAFFF2
:10279000FFF764F8FFF778F84FF000091420FFF70F
:1027A000F1FE06464FF00109FFF7FEFC06463546EE
:1027B000286842F21071026928469047206842F268
:1027C000107102692046904727460FA8FFF7FAFBD1
:1027D0000190386882683846019990472046FFF793
:1027E00083FC206842F21071426920469047A0465F
:1027F0000FA8FFF7EAFB0190D8F80000C268404636
:10280000019990472046FFF789FC0AA8FFF722FEAE
:1028100006A8FFF71FFE0423154A16490AA8FFF76A
:1028200079FD0423124A134906A8FFF773FD4FF000
:10283000000A1020FFF7A6FECA461490FFF70AFE12
:1028400004A800BF02A800BF102330220AA904A8D0
:10285000FFF74EF81023302206A902A8FFF748F828
:1028600005E004A8FFF78CF802A8FFF789F8F8E75D
:102870000000024000300140B9F1000F02D03046A4
:10288000FFF77CFE0EA8FFF743FD0FA8FFF796FCAD
:10289000FDF784FCBAF1000F02D01498FFF76EFE2A
:1028A00006A8FFF7E9FD0AA8FFF7E6FDEAE702A898
:1028B000FFF7A2F904A8FFF79FF9F1E7F0B50B3095
:1028C000154D20F007010024144A0FE003688B42E5
:1028D0000BD38B4205D95E1A43184768C3E90067DA
:1028E00000E04368136002C004E0021D1068002885
:1028F000ECD12046002802D1286808B10020F0BDA4
:10290000064A07481060074A121A22F00702C0E977
:10291000002401202860D7E7300000202C00002090
:102920003C00002038800020B0AF1480200024003C
:1029300055FFFF7F1000440041FFFF7F5A00540005
:1029400045FFFF7F0C00AE005FFFFF7F1E00BA0057
:1029500051FFFF7F1400D8003DFFFF7F1C00EC00FB
:102960004FFFFF7F00000000B0B0A88002001700FA
:10297000010000003C2A000800000000DF84018004
:102980000B00500053DAFF7FFFFFFFFF21002600FE
:102990002DDAFF7FFFFFFFFF0A00460029E9FF7FD6
:1029A00004005A001DE9FF7F68005E0019E9FF7FFF
:1029B00000000000B0AA018019002A00F1E2FF7FA8
:1029C000FFFFFFFF0200420005E9FF7F000000005B
:1029D00041524D00432B2B0000000000F82B000853
:1029E000602A0008502A0008F82B0008822A0008F4
:1029F000502A0008F82B0008A42A0008E82900083B
:102A0000F82B0008C82A0008DC290008F82B000869
:102A1000ED2A0008DC290008F82B0008132B000819
:102A2000502A0008F82B00083B2B0008482A000811
:102A3000F82B00084A2B0008482A0008F82B000849
:102A40005C2B0008482A0008E82B0008692B0008C6
:102A5000E82B0008762B0008082C0008832B0008C0
:102A60004E31305F5F637878616269763131375F0C
:102A70005F636C6173735F747970655F696E666FB5
:102A800045004E31305F5F6378786162697631313D
:102A9000375F5F70626173655F747970655F696EDF
:102AA000666F45004E31305F5F63787861626976AA
:102AB0003131395F5F706F696E7465725F74797000
:102AC000655F696E666F45004E31305F5F63787891
:102AD000616269763132305F5F73695F636C617325
:102AE000735F747970655F696E666F45004E313053
:102AF0005F5F637878616269763132315F5F766DEE
:102B0000695F636C6173735F747970655F696E662A
:102B10006F45004E31305F5F63787861626976316E
:102B200032335F5F66756E64616D656E74616C5F94
:102B3000747970655F696E666F45005374313062F9
:102B400061645F74797065696400537431336261E4
:102B5000645F657863657074696F6E005374396281
:102B600061645F616C6C6F63005374396578636591
:102B70007074696F6E00537439747970655F696E33
:102B8000666F0076000000000000000000000000FA
:102B90000D1C0008FB1B0008CD250008CD250008F2
:102BA000CD250008CD250008000000000000000031
:102BB000BD21000800000000D11F000849200008C6
:102BC000C1200008D520000800000000000000001F
:102BD000CD250008CD250008CD250008CD2500080D
:102BE00000000000DC2900080000000000000000D8
:102BF00000000000002A00080000000000000000A3
:102C000000000000182A000800000000000000007A
:102C100000000000000000008923000815240008BF
:102C20003D2400080000000000000000242A0008E5
:102C3000EB240008DD240008000000000000000074
:102C4000302A000823250008152500080000000090
:102C5000000000003C2A00085B2500084D25000804
:102C60000000000000000000482A000800000000EA
:102C70000000000000000000F82D00080000002007
:102C800034000000F82600082C2E00083400002034
:102C9000048400000827000805D5FF7F010000001C
:102CA000E4D6FF7FD8FCFF7FACD7FF7F0100000098
:102CB0002CDFFF7FB0B0AA80C0DFFF7FF8FCFF7F72
:102CC000FADFFF7FB0B0AA8028E0FF7F010000009C
:102CD00038E1FF7FB0B0A88050E1FF7F0100000025
:102CE0005CE5FF7FB0A9008084E5FF7F0100000064
:102CF00054E7FF7FB0B0A880FCE7FF7F0100000031
:102D000084EAFF7F0084068024EBFF7FB0A9008067
:102D10004CEBFF7FB0A80180D8EBFF7FB0B0AC8058
:102D200028ECFF7FB0AC018058ECFF7FA9D0028077
:102D3000A0EDFF7FB0AC038070EEFF7F01000000CC
:102D400070EEFF7FB0008480B0EEFF7F01000000D6
:102D5000BEEEFF7FB0B0AC80FCEEFF7FB0B0A880CD
:102D60000CEFFF7FB0B0AC80A8EFFF7FDF84058061
:102D700060F0FF7F0100000068F0FF7FDF840F80BC
:102D800044F2FF7F0100000048F2FF7FB0A90480F9
:102D900030F3FF7F0100000050F3FF7FB0A80580F3
:102DA000B0F3FF7FB000848000F4FF7F01000000DB
:102DB00024F5FF7FB0B0AC8058F5FF7F0100000024
:102DC000C4F7FF7FA4FBFF7FE4F7FF7FB0B0A880CC
:102DD000FCF7FF7F01000000FCF7FF7FDF84098024
:102DE00064F8FF7F5F840A8080F9FF7F3CFBFF7FF0
:102DF00088FAFF7F010000000000000000000000D2
:102E000000000000007A030A00000000000000003B
:102E1000010203040607080900000000000000008A
:0C2E2000000000000000000000000000A6
:040000050800018965
:00000001FF
