:020000040800F2
:10000000280400209D010008A5010008A7010008A0
:10001000A9010008AB010008AD01000800000000C4
:10002000000000000000000000000000AF01000818
:10003000B101000800000000B3010008B50100088C
:10004000B7010008B7010008B7010008B7010008B0
:10005000B7010008B7010008B7010008B7010008A0
:10006000B7010008B7010008B7010008B701000890
:10007000B7010008B7010008B7010008B701000880
:10008000B7010008B7010008B7010008B701000870
:10009000B7010008B7010008B7010008B701000860
:1000A000B7010008B7010008B7010008B701000850
:1000B000B7010008B7010008B7010008B701000840
:1000C000B7010008B7010008B7010008B701000830
:1000D000B7010008B7010008B7010008B701000820
:1000E000B7010008B7010008B7010008B701000810
:1000F000B7010008B7010008B7010008B701000800
:10010000B7010008B7010008B7010008B7010008EF
:10011000B7010008B7010008B7010008B7010008DF
:10012000B7010008B7010008B7010008B7010008CF
:10013000B7010008B7010008B7010008B7010008BF
:10014000B7010008B7010008B7010008B7010008AF
:10015000B7010008B7010008B7010008B70100089F
:10016000B7010008B7010008B7010008B70100088F
:10017000B7010008B7010008B7010008B70100087F
:10018000B7010008B7010008DFF80CD000F018F83C
:10019000004800475D0C00082804002006488047FE
:1001A00006480047FEE7FEE7FEE7FEE7FEE7FEE75C
:1001B000FEE7FEE7FEE7FEE77D060008890100088E
:1001C000064C074D06E0E06840F0010394E80700A4
:1001D00098471034AC42F6D3FFF7DAFF3C0E000824
:1001E0005C0E000830B589B004460D46002184EA53
:1001F00001006940084301D109B030BD4BE001A8BE
:1002000000F046F94B490298884212D24FF0E020A4
:10021000006940F004004FF0E02108614FF47A716A
:100220000298B0FBF1F0491048434FF0E0214861DB
:1002300011E04FF0E020006920F004004FF0E021D1
:1002400008614FF4FA510298B0FBF1F009114843EC
:100250004FF0E021486100204FF0E021886108461E
:10026000006940F00100086100BF4FF0E020006924
:1002700000F48030B0F5803FF7D14FF0E020006906
:1002800020F001004FF0E02108614FF4FA73E41A06
:1002900065F1000500BF4FF4FA710020091BA84169
:1002A000ADD305A800F0F4F822490698884212D28E
:1002B0004FF0E020006940F004004FF0E0210861B9
:1002C0004FF47A710698B0FBF1F0A0FB04014FF0F7
:1002D000E021486111E04FF0E020006920F00400C7
:1002E0004FF0E02108614FF4FA510698B0FBF1F0AD
:1002F000A0FB04014FF0E021486100204FF0E02115
:1003000088610846006940F00100086100BF4FF0B5
:10031000E020006900F48030B0F5803FF7D14FF065
:10032000E020006920F001004FF0E021086100BFEB
:1003300062E7000000127A00F0B50A4600210023AF
:10034000002400BF3DE0012505FA01F3156805EA28
:1003500003049C4234D105684F000326BE40B543D8
:10036000056015794E00B54006683543056015797E
:10037000012D02D01579022D16D185684F00032674
:10038000BE40B543856055794E00B540866835431B
:100390008560456801268E40B5434560456896797D
:1003A0008E40B6B235434560C5684F000326BE4057
:1003B000B543C560D5794E00B540C6683543C560C4
:1003C000491C1029BFD3F0BDF0B5002300244D0710
:1003D000ED0E02FA05F3CE1000F1200555F8265077
:1003E0004E07F70E0F26BE40B543CF1000F1200692
:1003F00046F82750CE1000F1200555F8265045EA62
:100400000304CE1000F1200545F82640F0BD0000A1
:1004100029B1064A12680243044B1A6004E0034AF9
:1004200012688243014B1A60704700003038024066
:1004300029B1064A12680243044B1A6004E0034AD9
:1004400012688243014B1A60704700002038024056
:1004500029B1064A12680243044B1A6004E0034AB9
:1004600012688243014B1A60704700004438024012
:1004700029B1064A12680243044B1A6004E0034A99
:1004800012688243014B1A60704700002438024012
:10049000F0B5002100220024022500260223324F5D
:1004A0003F6807F00C0121B1042905D0082937D194
:1004B00005E02E4F076036E02D4F076033E02A4FEE
:1004C0003F1F3F68C7F38056274F3F1F3F6807F025
:1004D0003F036EB1264FB7FBF3F7DFF88CC0ACF1EA
:1004E000040CDCF800C0CCF3881C07FB0CF40CE017
:1004F0001E4FB7FBF3F7DFF870C0ACF1040CDCF86B
:1005000000C0CCF3881C07FB0CF4174F3F1F3F685B
:10051000C7F301477F1C7D00B4FBF5F7076002E0DD
:10052000124F076000BF00BF0F4F3F6807F0F00198
:100530000909104F7A5C0768D74047600A4F3F6847
:1005400007F4E051890A0B4F7A5C4768D74087600F
:10055000054F3F6807F46041490B064F7A5C4768D6
:10056000D740C760F0BD0000083802400024F40006
:1005700000127A000400002021B1028842F04002FB
:10058000028004E002884FF6BF731A400280704771
:1005900010B504462448844208D101218014FFF795
:1005A00067FF0021A014FFF763FF3CE01F4884426F
:1005B00008D101210014FFF73BFF00212014FFF7B1
:1005C00037FF30E01A48844208D10121C013FFF7F9
:1005D0002FFF0021E013FFF72BFF24E01548844292
:1005E00008D101214014FFF743FF00216014FFF7F9
:1005F0003FFF18E01048844209D101210805FFF7A8
:1006000037FF00214FF48010FFF732FF0BE00B485B
:10061000844208D101214805FFF72AFF00214FF449
:100620000010FFF725FF10BD0030014000380040EA
:10063000003C0040003401400050014000540140A3
:1006400010B50022028802F441520B884C882343E3
:100650008C882343CC8823430C8923434C89234330
:100660008C892343CC8923431A430280838B4FF226
:10067000FF74234083830B8A038210BD10B5154895
:10068000006840F47000134908601348006840F0A7
:1006900001001149086000200F49083108600E4828
:1006A00000680E4908400C4908600D48091D0860A3
:1006B000081F006820F48020091F086000200649F8
:1006C0000C31086000F03CFA4FF0006001498039BD
:1006D000086010BD88ED00E000380240FFFFF6FE24
:1006E0001030002421B1028842F00102028004E0AF
:1006F00002884FF6FE731A400280704770B50024DE
:1007000000220023058C4FF6FE7635400584028CCE
:100710008388048B4FF68F752C40B51E2C400D88B6
:100720002C43751E2A408D892A434D882A43104D3B
:10073000A84202D00F4DA84213D14FF6F7752A40B8
:10074000CD892A434FF6FB752A408D882A434FF600
:10075000FF652B404FF6FF552B400D8A2B434D8AEA
:100760002B43838004838D684563028470BD000041
:1007700000000140000401400A460021018B4FF6B1
:10078000F77319401143018370470000002202886B
:10079000184B98420ED0184B98420BD0B0F1804FB6
:1007A00008D0164B984205D0154B984202D0154BF5
:1007B000984204D14FF68F731A404B881A43124B5C
:1007C000984207D0114B984204D04FF6FF431A408D
:1007D0000B891A4302804B68C3620B880385054B63
:1007E000984202D0044B984201D18B7A03860123B0
:1007F0008382704700000140000401400004004073
:1008000000080040000C00400010004000140040B0
:100810001CB50820009001208DF8040000208DF800
:10082000060002208DF8050000208DF807006946BB
:100830000148FFF781FD1CBD000002401CB50121ED
:100840000420FFF7E5FD4FF47470009001208DF84F
:10085000040000208DF8060003208DF8050000201C
:100860008DF8070069460248FFF766FD1CBD0000D1
:1008700000080240014608687047014688687047D2
:1008800030B585B005460C4601210220FFF7C0FDBA
:10089000032208211648FFF797FD4FF4807003905C
:1008A00000208DF812008DF8130002208DF8100042
:1008B00003208DF8110003A90D48FFF73DFD01212C
:1008C0004804FFF7C5FD0020ADF80000ADF80200B8
:1008D0000194ADF808008DF80A0069460548FFF755
:1008E00055FF01210348FFF7FDFE05B030BD0000B4
:1008F000000402400044014030B585B005460C4676
:1009000001210220FFF784FD032209211648FFF789
:100910005BFD4FF40070039000208DF812008DF8FD
:10092000130002208DF8100003208DF8110003A998
:100930000D48FFF701FD01218804FFF789FD002024
:10094000ADF80000ADF802000194ADF808008DF894
:100950000A0069460548FFF719FF01210348FFF720
:10096000C1FE05B030BD0000000402400048014057
:10097000034A1268B2FBF1F2521E02607047000097
:1009800014000020034A1268B2FBF1F2521E82608A
:10099000704700001400002010B586B00446702097
:1009A000ADF804000120ADF806000220ADF81000FB
:1009B0000020039001A90448FFF7A0FE0821024887
:1009C000FFF7DAFE06B010BD0044014010B586B056
:1009D00004467020ADF804000120ADF806000220A6
:1009E000ADF810000020039001A90448FFF786FE2F
:1009F00008210248FFF7C0FE06B010BD00480140C4
:100A000000BF0F4A128902F00302002AF9D00C4AF3
:100A1000128902F08002002AF3D1C1F30E02084BC2
:100A20009A8100BF064A128902F00302002AF9D017
:100A3000034A128902F08002002AF3D170470000B5
:100A40000030014010B588B0044601210846FFF788
:100A5000DFFCE020069002208DF81C0000208DF8BD
:100A60001E0002208DF81D0001208DF81F0006A930
:100A70001E48FFF761FC052211461C48FFF7A4FC45
:100A8000052206211948FFF79FFC05220721174878
:100A9000FFF79AFC01210803FFF7DAFC1448FFF77F
:100AA00077FD0020ADF804004FF40060ADF80800B9
:100AB0000020ADF812004FF48270ADF806004FF43C
:100AC0004070ADF80E000220ADF80A000120ADF82C
:100AD0000C002820ADF8100001A90548FFF7B0FD73
:100AE00001210348FFF748FD08B010BD0000024097
:100AF00000300140024600BF1048008900F00300AA
:100B00000028F9D00D48008900F080000028F3D1BA
:100B100041F40040094B988100BF0848008900F06B
:100B200003000028F9D00548008900F08000002863
:100B3000F3D102488089C0B2704700000030014004
:100B40000CB50020019000903448006840F48030DB
:100B50003249086000BF3148006800F4003000905E
:100B60000198401C0190009818B90198B0F5A06F49
:100B7000F1D12A48006800F4003010B10120009043
:100B800001E0002000900098012846D12348403021
:100B9000006840F0805021494031086020480068DA
:100BA00040F440401E4908601C48083000681B495A
:100BB000083108600846006840F4004008600846B4
:100BC000006840F4A05008601648091F0860081F1C
:100BD000006840F08070091F086000BF0F4800687F
:100BE00000F000700028F9D040F205700E4908604E
:100BF0000A480830006820F00300084908310860FE
:100C00000846006840F00200086000BF0348083052
:100C1000006800F00C000828F8D10CBD0038024034
:100C20000070004008544007003C0240024A116036
:100C300001220270704700000000002002E008C896
:100C4000121F08C1002AFAD170477047002001E046
:100C500001C1121F002AFBD17047000070B58AB095
:100C6000FFF70CFDFFF7EAFD06A800BF05A800BFCF
:100C700006AC05AD06A92846FFF7D8FF04A800BFBB
:100C8000FFF7E0FEFFF7C4FD42F210712046FFF7C8
:100C90006FFE06A8FFF7EEFD064631462046FFF739
:100CA000EFFD2046FFF778FE42F210712046FFF775
:100CB00069FE06A8FFF7E1FD064631462046FFF72C
:100CC0001BFE2046FFF782FE08205B494883012077
:100CD0000021FFF787FA08205749488301200021A7
:100CE000FFF780FA4FF4706104A8FFF703FF02904A
:100CF00008205149088301200021FFF773FA0820DA
:100D00004D49488301200021FFF76CFA42F20F01A0
:100D100004A8FFF775FE0820474908830120002139
:100D2000FFF760FA08204449488301200021FFF7BB
:100D300059FA4FF4045104A8FFF762FE08203E4917
:100D4000088301200021FFF74DFA08203A49488323
:100D500001200021FFF746FA4FF4085104A8FFF7DD
:100D60004FFE08203449088301200021FFF73AFA9A
:100D700008203149488301200021FFF733FA42F26D
:100D8000303104A8FFF73CFE08202B4908830120DE
:100D90000021FFF727FA0820274948830120002176
:100DA000FFF720FA4FF4105104A8FFF729FE08209E
:100DB0002149088301200021FFF714FA3BE00820B5
:100DC0001D49488301200021FFF70CFA4FF4205100
:100DD00004A8FFF78FFE029008201749088301201E
:100DE0000021FFF7FFF90820134948830120002163
:100DF000FFF7F8F94FF4245104A8FFF77BFE0190A8
:100E000008200D49088301200021FFF7EBF9082095
:100E10000949488301200021FFF7E4F94FF470618C
:100E200004A8FFF767FE039001200021FFF7DAF91D
:100E3000082001490883C2E7000002405C0E000858
:100E400000000020280000003C0C0008840E000870
:100E500028000020000400004C0C000800000000E6
:100E60000000000001020304010203040607080950
:100E7000007A030A000000000000000001020304E1
:040E80000607080950
:040000050800018965
:00000001FF
